:100000000C942A000C9447000C9447000C94470071
:100010000C9447000C9447000C9447000C94470044
:100020000C9447000C9447000C9447000C94470034
:100030000C9447000C9447000C9447000C94470024
:100040000C9447000C9447000C9447000C94470014
:100050000C94470011241FBECFE5D8E0DEBFCDBF12
:1000600010E0A0E6B0E0E2ECFBE002C005900D92EB
:10007000A236B107D9F720E0A2E6B0E001C01D9298
:10008000A336B207E1F70E9405030C94DF050C9438
:10009000000060E081E40E94010262E081E40E94CD
:1000A000010261E081E40E94010260E082E40E94BA
:1000B000010262E082E40E94010261E082E40E94A7
:1000C000010262E084E40E94FD010E941E030E947E
:1000D0000A030E9419030E940E030E9415038DE07B
:1000E00092E00E941D030895CF93DF9360E081E4C6
:1000F0000E94050261E081E40E94090262E081E45D
:100100000E94090262E082E40E94050261E082E44A
:100110000E94090260E082E40E940902809160006E
:10012000811107C090916200992319F0913009F074
:1001300003C1811103C091E090936200909162002D
:10014000913091F120F0923009F4C1C0EEC060E02E
:1001500081E40E94050261E081E40E94090262E0FC
:1001600081E40E94090262E082E40E94050261E0EB
:1001700082E40E94090260E082E40E940902C0E079
:10018000D0E009C084E490E00E94420380916000C6
:10019000882321F02196C233D105A4F381E0809316
:1001A00062001092610026C1811170C080916100CF
:1001B000823079F162E082E40E940502C0E0D0E082
:1001C00025C061E081E40E94050261E082E40E94B2
:1001D000050286E891E00E94420361E081E40E940A
:1001E000090261E082E40E9409028EEB90E00E9425
:1001F000420361E081E40E94050261E082E40E9422
:10020000050286E891E00E9442032196C530D1059F
:10021000C4F281E08093610082E08093620062E03A
:1002200081E40E94050260E082E40E94050233C07E
:1002300061E081E40E94050261E082E40E9405021F
:100240008CE791E00E94420361E081E40E94090290
:1002500061E082E40E94090284EB90E00E94420384
:1002600061E081E40E94050261E082E40E940502EF
:100270008CE791E00E94420380916000811104C0EC
:1002800081E08093610007C0219602C0C0E0D0E009
:10029000C530D1056CF261E081E40E94090261E0A1
:1002A00082E40E94090280916100811107C082E00E
:1002B0008093620081E0809361009CC0823009F0ED
:1002C00099C01092620081E08093610093C060E069
:1002D00081E40E94090261E081E40E94090262E077
:1002E00081E40E94050260E082E40E94050261E070
:1002F00082E40E94090262E082E40E940902C0E0F6
:10030000D0E009C084E490E00E9442038091600044
:10031000882321F02196C233D105A4F382E0809393
:10032000610081E08093620065C082E0809362009A
:1003300081E0809361005EC060E082E40E94090277
:1003400061E082E40E94090262E082E40E94050208
:1003500060E081E40E94050261E081E40E940902FC
:1003600062E081E40E94090288E893E10E9442036E
:1003700062E081E40E940902C0E0D0E025C061E0B3
:1003800081E40E94050261E082E40E94050286E8A1
:1003900091E00E94420361E081E40E94090261E071
:1003A00082E40E9409028EEB90E00E94420361E029
:1003B00081E40E94050261E082E40E94050286E871
:1003C00091E00E9442032196C530D105C4F261E05C
:1003D00081E40E94090261E082E40E94090262E075
:1003E00082E40E94050281E0809360001092620026
:1003F00080936100DF91CF91089540E00E94100248
:10040000089541E00E941002089541E00E948A028E
:10041000089540E00E948A0208950E94040308950E
:10042000823431F118F4813439F008958334E1F1E4
:10043000843409F454C0089541110CC02AB381E0FA
:1004400090E002C0880F991F6A95E2F78095822399
:100450008ABB0895413009F05CC02AB381E090E086
:1004600002C0880F991F6A95E2F7822B8ABB089514
:1004700041110CC027B381E090E002C0880F991FA2
:100480006A95E2F78095822387BB0895413009F091
:1004900040C027B381E090E002C0880F991F6A95A1
:1004A000E2F7822B87BB089541110CC024B381E091
:1004B00090E002C0880F991F6A95E2F78095822329
:1004C00084BB0895413029F524B381E090E002C057
:1004D000880F991F6A95E2F7822B84BB089541111A
:1004E0000CC021B381E090E002C0880F991F6A958B
:1004F000E2F78095822381BB0895413051F421B306
:1005000081E090E002C0880F991F6A95E2F7822B84
:1005100081BB0895823431F118F4813439F00895A3
:100520008334E1F1843409F454C0089541110CC0BE
:100530002BB381E090E002C0880F991F6A95E2F723
:10054000809582238BBB0895413009F05CC02BB3AA
:1005500081E090E002C0880F991F6A95E2F7822B34
:100560008BBB089541110CC028B381E090E002C01C
:10057000880F991F6A95E2F78095822388BB0895BA
:10058000413009F040C028B381E090E002C0880FFC
:10059000991F6A95E2F7822B88BB089541110CC020
:1005A00025B381E090E002C0880F991F6A95E2F7B9
:1005B0008095822385BB0895413029F525B381E0DC
:1005C00090E002C0880F991F6A95E2F7822B85BBE5
:1005D000089541110CC022B381E090E002C0880F61
:1005E000991F6A95E2F78095822382BB0895413076
:1005F00051F422B381E090E002C0880F991F6A9500
:10060000E2F7822B82BB089508950E9449000E9460
:100610007400FDCF8FB780688FBF089585B7816064
:1006200085BF85B7826085BF08958BB780648BBF17
:10063000089589B7816089BF0895089583B78F7B36
:1006400083BF83B7877F83BF83B7816083BF83B74F
:100650008D7F83BF83B78B7F83BF83B78F7E83BF3D
:1006600083B78F7D83BF89B78E7F89BF89B78D7F21
:1006700089BF88B7816088BF88B7826088BF12BE93
:100680001CBE08958F929F92AF92BF92CF92DF923D
:10069000EF92FF92CF93DF93EC01BC0180E090E0FA
:1006A0000E94EC046B017C012FE632E143E852E446
:1006B0000E94460488239CF4A70196016FE672E12C
:1006C00083E892E40E94C2032FE632E143E85EE34E
:1006D0000E944B040E94BD04C1E0D0E035C0C1348B
:1006E000D10579F12FE632E143E852E4C701B601C2
:1006F0000E944B040E942F040E94BD044B015C0128
:10070000EB012FE632E143E85EE3C701B6010E9448
:100710004B046B017C01B40180E090E00E94EC048A
:100720009B01AC01C701B6010E944B049B01AC01C7
:1007300060E070E080E893E40E94C2030E94BD0480
:1007400003C060E0C1E0D0E062BF83B7846083BFD4
:1007500020E030E008C008B600FEFDCF88B7816019
:1007600088BF2F5F3F4F2C173D07A8F313BEDF91C3
:10077000CF91FF90EF90DF90CF90BF90AF909F9080
:100780008F9008955058BB27AA270E94DA030C9433
:100790008D050E947F0538F00E94860520F039F40F
:1007A0009F3F19F426F40C947C050EF4E095E7FBCA
:1007B0000C944D05E92F0E949E0558F3BA17620765
:1007C00073078407950720F079F4A6F50C94D805F3
:1007D0000EF4E0950B2EBA2FA02D0B01B90190015C
:1007E0000C01CA01A0011124FF27591B99F0593FA0
:1007F00050F4503E68F11A16F040A22F232F342FE8
:100800004427585FF3CF469537952795A795F04035
:100810005395C9F77EF41F16BA0B620B730B840B4A
:10082000BAF09150A1F0FF0FBB1F661F771F881F02
:10083000C2F70EC0BA0F621F731F841F48F487955A
:1008400077956795B795F7959E3F08F0B0CF93954C
:10085000880F08F09927EE0F9795879508950E94C5
:10086000C00590F09F3748F4911116F40C94D90507
:1008700060E070E080E89FE3089526F01B16611D9C
:10088000711D811D0C9453050C946E050E94290561
:1008900008F481E008950E945F040C948D050E9485
:1008A000860558F00E947F0540F029F45F3F29F04B
:1008B0000C944D0551110C94D9050C947C050E94A3
:1008C0009E0568F39923B1F3552391F3951B550BBE
:1008D000BB27AA2762177307840738F09F5F5F4F13
:1008E000220F331F441FAA1FA9F335D00E2E3AF052
:1008F000E0E832D091505040E695001CCAF72BD06A
:10090000FE2F29D0660F771F881FBB1F26173707BA
:100910004807AB07B0E809F0BB0B802DBF01FF27EC
:1009200093585F4F3AF09E3F510578F00C944D0577
:100930000C94D9055F3FE4F3983ED4F38695779500
:100940006795B795F7959F5FC9F7880F911D9695A5
:10095000879597F90895E1E0660F771F881FBB1F01
:10096000621773078407BA0720F0621B730B840BAE
:10097000BA0BEE1F88F7E09508950E94A60588F04F
:100980009F5798F0B92F9927B751B0F0E1F0660F53
:10099000771F881F991F1AF0BA95C9F714C0B13094
:1009A00091F00E94D805B1E008950C94D805672F06
:1009B000782F8827B85F39F0B93FCCF386957795C3
:1009C0006795B395D9F73EF49095809570956195AC
:1009D0007F4F8F4F9F4F0895E89409C097FB3EF4D7
:1009E00090958095709561957F4F8F4F9F4F99237C
:1009F000A9F0F92F96E9BB279395F69587957795FA
:100A00006795B795F111F8CFFAF4BB0F11F460FFB9
:100A10001BC06F5F7F4F8F4F9F4F16C0882311F011
:100A200096E911C0772321F09EE8872F762F05C025
:100A3000662371F096E8862F70E060E02AF09A95C0
:100A4000660F771F881FDAF7880F9695879597F9B5
:100A50000895990F0008550FAA0BE0E8FEEF16164F
:100A60001706E807F907C0F012161306E407F507A2
:100A700098F0621B730B840B950B39F40A2661F016
:100A8000232B242B252B21F408950A2609F4A140B9
:100A9000A6958FEF811D811D089597F99F6780E8C6
:100AA00070E060E00895882371F4772321F0985076
:100AB000872B762F07C0662311F499270DC090511C
:100AC000862B70E060E02AF09A95660F771F881FEA
:100AD000DAF7880F9695879597F908959F3F31F03B
:100AE000915020F4879577956795B795880F911D5C
:100AF0009695879597F908959FEF80EC08950024C7
:100B00000A941616170618060906089500240A9472
:100B100012161306140605060895092E0394000CF8
:100B200011F4882352F0BB0F40F4BF2B11F460FF87
:100B300004C06F5F7F4F8F4F9F4F089557FD9058B0
:100B4000440F551F59F05F3F71F04795880F97FB91
:100B5000991F61F09F3F79F087950895121613064B
:100B60001406551FF2CF4695F1DF08C0161617067A
:100B70001806991FF1CF86957105610508940895AF
:100B80000E94A605A0F0BEE7B91788F4BB279F38DE
:100B900060F41616B11D672F782F8827985FF7CF5E
:100BA000869577956795B11D93959639C8F3089505
:100BB000E894BB2766277727CB0197F90895F89427
:020BC000FFCF65
:020BC20001012F
:00000001FF
