S010000050726F6A656374312E737265630C
S11300000C942A000C9477010C943C000C943C0052
S11300100C943C000C943C000C943C000C943C006C
S11300200C943C000C943C000C943C000C943C005C
S11300300C943C000C943C000C943C000C943C004C
S11300400C943C000C943C000C943C000C943C003C
S11300500C943C0011241FBECFE5D8E0DEBFCDBF19
S113006020E0A0E6B0E001C01D92A236B207E1F79D
S11300700E948E020C9432050C94000060E081E42E
S11300800E948E0162E081E40E948E0161E081E4BD
S11300900E948E0160E082E40E948E0162E082E4AC
S11300A00E948E0161E082E40E948E0162E084E499
S11300B00E948A010E949302789485B7836085BF69
S11300C08BB780648BBF0895CF93DF9360E081E4A6
S11300D00E94920161E081E40E94960162E081E461
S11300E00E94960162E082E40E94920161E082E44F
S11300F00E94960160E082E40E9496018091600073
S1130100813011F48093610080916100813099F114
S113011038F0823009F478C0833009F4A0C0E4C018
S113012060E081E40E94920161E081E40E94960112
S113013062E081E40E94960162E082E40E949201FE
S113014061E082E40E94960160E082E40E949601EC
S1130150C0E0D0E009C084E490E00E949502809160
S11301606000811104C02196C233D105A4F381E05B
S113017080936100B9C060E081E40E94920161E073
S113018081E40E94960162E081E40E94960162E0AB
S113019082E40E94920161E082E40E94960160E0A0
S11301A082E40E949601C0E0D0E025C061E081E4D1
S11301B00E94920161E082E40E94920186E891E04B
S11301C00E94950261E081E40E94960161E082E46C
S11301D00E9496018EEB90E00E94950261E081E41A
S11301E00E94920161E082E40E94920186E891E01B
S11301F00E9495022196C530D105C4F21092600088
S113020082E08093610070C062E081E40E94920108
S113021061E081E40E94960160E081E40E9496011D
S113022060E082E40E94920161E082E40E9496010F
S113023062E082E40E949601C0E0D0E009C084E458
S113024090E00E94950280916000811104C0219683
S1130250C233D105A4F383E08093610045C062E01A
S113026081E40E94920161E081E40E94960160E0D1
S113027081E40E94960160E082E40E94920161E0C0
S113028082E40E94960162E082E40E949601C0E04A
S1130290D0E025C061E081E40E94920161E082E443
S11302A00E94920186E891E00E94950261E081E457
S11302B00E94960161E082E40E9496018EEB90E038
S11302C00E94950261E081E40E94920161E082E46F
S11302D00E94920186E891E00E9495022196C53021
S11302E0D105C4F210926100DF91CF9108951F925D
S11302F00F920FB60F9211248F9380916000811199
S113030003C081E0809361008F910F900FBE0F9026
S11303101F90189540E00E949A01089541E00E94C0
S11303209A01089541E00E941402089540E00E9459
S113033014020895823431F118F4813439F00895A7
S11303408334E1F1843409F454C0089541110CC09C
S11303502AB381E090E002C0880F991F6A95E2F702
S1130360809582238ABB0895413009F05CC02AB38A
S113037081E090E002C0880F991F6A95E2F7822B12
S11303808ABB089541110CC027B381E090E002C0FC
S1130390880F991F6A95E2F78095822387BB089599
S11303A0413009F040C027B381E090E002C0880FDB
S11303B0991F6A95E2F7822B87BB089541110CC0FF
S11303C024B381E090E002C0880F991F6A95E2F798
S11303D08095822384BB0895413029F524B381E0BC
S11303E090E002C0880F991F6A95E2F7822B84BBC4
S11303F0089541110CC021B381E090E002C0880F40
S1130400991F6A95E2F78095822381BB0895413054
S113041051F421B381E090E002C0880F991F6A95DE
S1130420E2F7822B81BB0895823431F118F48134D0
S113043039F008958334E1F1843409F454C0089503
S113044041110CC02BB381E090E002C0880F991FCA
S11304506A95E2F7809582238BBB0895413009F0B9
S11304605CC02BB381E090E002C0880F991F6A95AD
S1130470E2F7822B8BBB089541110CC028B381E0B5
S113048090E002C0880F991F6A95E2F78095822355
S113049088BB0895413009F040C028B381E090E062
S11304A002C0880F991F6A95E2F7822B88BB0895D2
S11304B041110CC025B381E090E002C0880F991F60
S11304C06A95E2F78095822385BB0895413029F52A
S11304D025B381E090E002C0880F991F6A95E2F786
S11304E0822B85BB089541110CC022B381E090E0BA
S11304F002C0880F991F6A95E2F78095822382BB18
S11305000895413051F422B381E090E002C0880F95
S1130510991F6A95E2F7822B82BB08950E943E00E0
S11305200E946400FDCF13BE08958F929F92AF92F4
S1130530BF92CF92DF92EF92FF92CF93DF93EC01C1
S1130540BC0180E090E00E943F046B017C012FE637
S113055032E143E852E40E94990388239CF4A70102
S113056096016FE672E183E892E40E9415032FE698
S113057032E143E85EE30E949E030E941004C1E05E
S1130580D0E035C0C134D10579F12FE632E143E83A
S113059052E4C701B6010E949E030E9482030E9496
S11305A010044B015C01EB012FE632E143E85EE30A
S11305B0C701B6010E949E036B017C01B40180E077
S11305C090E00E943F049B01AC01C701B6010E9468
S11305D09E039B01AC0160E070E080E893E40E941C
S11305E015030E94100403C060E0C1E0D0E062BFC4
S11305F083B7846083BF20E030E008C008B600FE03
S1130600FDCF88B7816088BF2F5F3F4F2C173D0710
S1130610A8F313BEDF91CF91FF90EF90DF90CF90BE
S1130620BF90AF909F908F9008955058BB27AA27F2
S11306300E942D030C94E0040E94D20438F00E941E
S1130640D90420F039F49F3F19F426F40C94CF0414
S11306500EF4E095E7FB0C94A004E92F0E94F1044A
S113066058F3BA17620773078407950720F079F4E3
S1130670A6F50C942B050EF4E0950B2EBA2FA02DA5
S11306800B01B90190010C01CA01A0011124FF273B
S1130690591B99F0593F50F4503E68F11A16F04036
S11306A0A22F232F342F4427585FF3CF4695379535
S11306B02795A795F0405395C9F77EF41F16BA0BFA
S11306C0620B730B840BBAF09150A1F0FF0FBB1FA8
S11306D0661F771F881FC2F70EC0BA0F621F731FF1
S11306E0841F48F4879577956795B795F7959E3F4E
S11306F008F0B0CF9395880F08F09927EE0F9795DF
S1130700879508950E94130590F09F3748F491113E
S113071016F40C942C0560E070E080E89FE30895E3
S113072026F01B16611D711D811D0C94A6040C94EA
S1130730C1040E947C0408F481E008950E94B2037D
S11307400C94E0040E94D90458F00E94D20440F0B2
S113075029F45F3F29F00C94A00451110C942C054A
S11307600C94CF040E94F10468F39923B1F3552348
S113077091F3951B550BBB27AA27621773078407B0
S113078038F09F5F5F4F220F331F441FAA1FA9F346
S113079035D00E2E3AF0E0E832D091505040E69534
S11307A0001CCAF72BD0FE2F29D0660F771F881F95
S11307B0BB1F261737074807AB07B0E809F0BB0B88
S11307C0802DBF01FF2793585F4F3AF09E3F51059C
S11307D078F00C94A0040C942C055F3FE4F3983E4D
S11307E0D4F3869577956795B795F7959F5FC9F785
S11307F0880F911D9695879597F90895E1E0660F06
S1130800771F881FBB1F621773078407BA0720F07E
S1130810621B730B840BBA0BEE1F88F7E0950895E7
S11308200E94F90488F09F5798F0B92F9927B7517F
S1130830B0F0E1F0660F771F881F991F1AF0BA9580
S1130840C9F714C0B13091F00E942B05B1E00895AE
S11308500C942B05672F782F8827B85F39F0B93FA0
S1130860CCF3869577956795B395D9F73EF4909533
S11308708095709561957F4F8F4F9F4F0895E894B1
S113088009C097FB3EF490958095709561957F4FD4
S11308908F4F9F4F9923A9F0F92F96E9BB27939582
S11308A0F695879577956795B795F111F8CFFAF492
S11308B0BB0F11F460FF1BC06F5F7F4F8F4F9F4FC3
S11308C016C0882311F096E911C0772321F09EE821
S11308D0872F762F05C0662371F096E8862F70E087
S11308E060E02AF09A95660F771F881FDAF7880F61
S11308F09695879597F90895990F0008550FAA0BB7
S1130900E0E8FEEF16161706E807F907C0F012161E
S11309101306E407F50798F0621B730B840B950B21
S113092039F40A2661F0232B242B252B21F4089576
S11309300A2609F4A140A6958FEF811D811D089513
S113094097F99F6780E870E060E00895882371F468
S1130950772321F09850872B762F07C0662311F454
S113096099270DC09051862B70E060E02AF09A958B
S1130970660F771F881FDAF7880F9695879597F982
S113098008959F3F31F0915020F4879577956795AE
S1130990B795880F911D9695879597F908959FEFC0
S11309A080EC089500240A94161617061806090602
S11309B0089500240A9412161306140605060895D1
S11309C0092E0394000C11F4882352F0BB0F40F459
S11309D0BF2B11F460FF04C06F5F7F4F8F4F9F4F99
S11309E0089557FD9058440F551F59F05F3F71F01B
S11309F04795880F97FB991F61F09F3F79F0879582
S1130A000895121613061406551FF2CF4695F1DF0A
S1130A1008C0161617061806991FF1CF869571059A
S1130A206105089408950E94F904A0F0BEE7B9177F
S1130A3088F4BB279F3860F41616B11D672F782FF2
S1130A408827985FF7CF869577956795B11D93951D
S1130A509639C8F30895E894BB2766277727CB0116
S10B0A6097F90895F894FFCF03
S9030000FC
